{
  "_format": "hh-sol-artifact-1",
  "contractName": "EtherTransfer",
  "sourceName": "contracts/EtherTransfer.sol",
  "abi": [
    {
      "inputs": [
        {
          "internalType": "address payable",
          "name": "_to",
          "type": "address"
        }
      ],
      "name": "transferEther",
      "outputs": [],
      "stateMutability": "payable",
      "type": "function"
    }
  ],
  "bytecode": "0x608060405234801561001057600080fd5b5061020f806100206000396000f3fe60806040526004361061001e5760003560e01c80636b55e99114610023575b600080fd5b61003d6004803603810190610038919061012f565b61003f565b005b60003411610082576040517f08c379a0000000000000000000000000000000000000000000000000000000008152600401610079906101b9565b60405180910390fd5b8073ffffffffffffffffffffffffffffffffffffffff166108fc349081150290604051600060405180830381858888f193505050501580156100c8573d6000803e3d6000fd5b5050565b600080fd5b600073ffffffffffffffffffffffffffffffffffffffff82169050919050565b60006100fc826100d1565b9050919050565b61010c816100f1565b811461011757600080fd5b50565b60008135905061012981610103565b92915050565b600060208284031215610145576101446100cc565b5b60006101538482850161011a565b91505092915050565b600082825260208201905092915050565b7f416d6f756e74206d7573742062652067726561746572207468616e207a65726f600082015250565b60006101a360208361015c565b91506101ae8261016d565b602082019050919050565b600060208201905081810360008301526101d281610196565b905091905056fea2646970667358221220f20c3702367603080eaa0e3b3a417fbc29c0f3bb6320d379989fe057cb4fbcd164736f6c63430008130033",
  "linkReferences": {},
  "deployedLinkReferences": {}
}