{
  "contractName": "Shipment",
  "abi": [
    {
      "inputs": [],
      "stateMutability": "nonpayable",
      "type": "constructor"
    },
    {
      "anonymous": false,
      "inputs": [
        {
          "indexed": true,
          "internalType": "address",
          "name": "owner",
          "type": "address"
        },
        {
          "indexed": false,
          "internalType": "uint256",
          "name": "amount",
          "type": "uint256"
        }
      ],
      "name": "LogWithdrawal",
      "type": "event"
    },
    {
      "anonymous": false,
      "inputs": [
        {
          "indexed": true,
          "internalType": "address",
          "name": "owner",
          "type": "address"
        },
        {
          "indexed": false,
          "internalType": "uint256",
          "name": "amount",
          "type": "uint256"
        },
        {
          "indexed": false,
          "internalType": "uint256",
          "name": "timestamp",
          "type": "uint256"
        }
      ],
      "name": "logTrasaction",
      "type": "event"
    },
    {
      "inputs": [],
      "name": "owner",
      "outputs": [
        {
          "internalType": "address",
          "name": "",
          "type": "address"
        }
      ],
      "stateMutability": "view",
      "type": "function",
      "constant": true
    },
    {
      "inputs": [
        {
          "internalType": "address",
          "name": "",
          "type": "address"
        }
      ],
      "name": "payments",
      "outputs": [
        {
          "internalType": "string",
          "name": "firstname",
          "type": "string"
        },
        {
          "internalType": "string",
          "name": "lastname",
          "type": "string"
        },
        {
          "internalType": "string",
          "name": "email",
          "type": "string"
        },
        {
          "internalType": "string",
          "name": "cargoType",
          "type": "string"
        },
        {
          "internalType": "string",
          "name": "origin",
          "type": "string"
        },
        {
          "internalType": "string",
          "name": "destination",
          "type": "string"
        },
        {
          "internalType": "string",
          "name": "transportationMedium",
          "type": "string"
        },
        {
          "internalType": "uint256",
          "name": "quantity",
          "type": "uint256"
        },
        {
          "internalType": "uint256",
          "name": "weight",
          "type": "uint256"
        },
        {
          "internalType": "uint256",
          "name": "amount",
          "type": "uint256"
        },
        {
          "internalType": "uint256",
          "name": "_timestamp",
          "type": "uint256"
        }
      ],
      "stateMutability": "view",
      "type": "function",
      "constant": true
    },
    {
      "inputs": [
        {
          "internalType": "uint256",
          "name": "",
          "type": "uint256"
        }
      ],
      "name": "shipmentOrders",
      "outputs": [
        {
          "internalType": "string",
          "name": "firstname",
          "type": "string"
        },
        {
          "internalType": "string",
          "name": "lastname",
          "type": "string"
        },
        {
          "internalType": "string",
          "name": "email",
          "type": "string"
        },
        {
          "internalType": "string",
          "name": "cargoType",
          "type": "string"
        },
        {
          "internalType": "string",
          "name": "origin",
          "type": "string"
        },
        {
          "internalType": "string",
          "name": "destination",
          "type": "string"
        },
        {
          "internalType": "string",
          "name": "transportationMedium",
          "type": "string"
        },
        {
          "internalType": "uint256",
          "name": "quantity",
          "type": "uint256"
        },
        {
          "internalType": "uint256",
          "name": "weight",
          "type": "uint256"
        },
        {
          "internalType": "uint256",
          "name": "amount",
          "type": "uint256"
        },
        {
          "internalType": "uint256",
          "name": "_timestamp",
          "type": "uint256"
        }
      ],
      "stateMutability": "view",
      "type": "function",
      "constant": true
    },
    {
      "inputs": [
        {
          "internalType": "address payable",
          "name": "_to",
          "type": "address"
        },
        {
          "internalType": "uint256",
          "name": "_transferAmount",
          "type": "uint256"
        },
        {
          "internalType": "string",
          "name": "_firstname",
          "type": "string"
        },
        {
          "internalType": "string",
          "name": "_lastname",
          "type": "string"
        },
        {
          "internalType": "string",
          "name": "_email",
          "type": "string"
        },
        {
          "internalType": "string",
          "name": "_cargoType",
          "type": "string"
        },
        {
          "internalType": "string",
          "name": "_origin",
          "type": "string"
        },
        {
          "internalType": "string",
          "name": "_destination",
          "type": "string"
        },
        {
          "internalType": "string",
          "name": "_transportationMedium",
          "type": "string"
        },
        {
          "internalType": "uint256",
          "name": "_quantity",
          "type": "uint256"
        },
        {
          "internalType": "uint256",
          "name": "_weight",
          "type": "uint256"
        }
      ],
      "name": "makePayment",
      "outputs": [
        {
          "internalType": "bool",
          "name": "",
          "type": "bool"
        }
      ],
      "stateMutability": "payable",
      "type": "function",
      "payable": true
    },
    {
      "inputs": [
        {
          "internalType": "address",
          "name": "_address",
          "type": "address"
        }
      ],
      "name": "getPayments",
      "outputs": [
        {
          "components": [
            {
              "internalType": "string",
              "name": "firstname",
              "type": "string"
            },
            {
              "internalType": "string",
              "name": "lastname",
              "type": "string"
            },
            {
              "internalType": "string",
              "name": "email",
              "type": "string"
            },
            {
              "internalType": "string",
              "name": "cargoType",
              "type": "string"
            },
            {
              "internalType": "string",
              "name": "origin",
              "type": "string"
            },
            {
              "internalType": "string",
              "name": "destination",
              "type": "string"
            },
            {
              "internalType": "string",
              "name": "transportationMedium",
              "type": "string"
            },
            {
              "internalType": "uint256",
              "name": "quantity",
              "type": "uint256"
            },
            {
              "internalType": "uint256",
              "name": "weight",
              "type": "uint256"
            },
            {
              "internalType": "uint256",
              "name": "amount",
              "type": "uint256"
            },
            {
              "internalType": "uint256",
              "name": "_timestamp",
              "type": "uint256"
            }
          ],
          "internalType": "struct Shipment.ShipmentOrder",
          "name": "",
          "type": "tuple"
        }
      ],
      "stateMutability": "view",
      "type": "function",
      "constant": true
    },
    {
      "inputs": [
        {
          "internalType": "uint256",
          "name": "amount",
          "type": "uint256"
        }
      ],
      "name": "withdraw",
      "outputs": [],
      "stateMutability": "payable",
      "type": "function",
      "payable": true
    },
    {
      "inputs": [],
      "name": "getOwnwer",
      "outputs": [
        {
          "internalType": "address",
          "name": "",
          "type": "address"
        }
      ],
      "stateMutability": "view",
      "type": "function",
      "constant": true
    }
  ],
  "bytecode": "0x608060405234801561001057600080fd5b5033600260006101000a81548173ffffffffffffffffffffffffffffffffffffffff021916908373ffffffffffffffffffffffffffffffffffffffff16021790555061206c806100616000396000f3fe6080604052600436106100705760003560e01c8063a88956ad1161004e578063a88956ad146100f9578063afa3d7c914610129578063e2982c2114610170578063e5bda81b146101b757610070565b80631d6a1711146100755780632e1a7d4d146100b25780638da5cb5b146100ce575b600080fd5b34801561008157600080fd5b5061009c600480360381019061009791906114cc565b6101e2565b6040516100a991906116bb565b60405180910390f35b6100cc60048036038101906100c79190611709565b610662565b005b3480156100da57600080fd5b506100e3610782565b6040516100f09190611745565b60405180910390f35b610113600480360381019061010e91906118d3565b6107a8565b6040516101209190611aa6565b60405180910390f35b34801561013557600080fd5b50610150600480360381019061014b9190611709565b610ba2565b6040516101679b9a99989796959493929190611b1a565b60405180910390f35b34801561017c57600080fd5b50610197600480360381019061019291906114cc565b610fc4565b6040516101ae9b9a99989796959493929190611b1a565b60405180910390f35b3480156101c357600080fd5b506101cc6113d6565b6040516101d99190611745565b60405180910390f35b6101ea611400565b600160008373ffffffffffffffffffffffffffffffffffffffff1673ffffffffffffffffffffffffffffffffffffffff1681526020019081526020016000206040518061016001604052908160008201805461024590611c25565b80601f016020809104026020016040519081016040528092919081815260200182805461027190611c25565b80156102be5780601f10610293576101008083540402835291602001916102be565b820191906000526020600020905b8154815290600101906020018083116102a157829003601f168201915b505050505081526020016001820180546102d790611c25565b80601f016020809104026020016040519081016040528092919081815260200182805461030390611c25565b80156103505780601f1061032557610100808354040283529160200191610350565b820191906000526020600020905b81548152906001019060200180831161033357829003601f168201915b5050505050815260200160028201805461036990611c25565b80601f016020809104026020016040519081016040528092919081815260200182805461039590611c25565b80156103e25780601f106103b7576101008083540402835291602001916103e2565b820191906000526020600020905b8154815290600101906020018083116103c557829003601f168201915b505050505081526020016003820180546103fb90611c25565b80601f016020809104026020016040519081016040528092919081815260200182805461042790611c25565b80156104745780601f1061044957610100808354040283529160200191610474565b820191906000526020600020905b81548152906001019060200180831161045757829003601f168201915b5050505050815260200160048201805461048d90611c25565b80601f01602080910402602001604051908101604052809291908181526020018280546104b990611c25565b80156105065780601f106104db57610100808354040283529160200191610506565b820191906000526020600020905b8154815290600101906020018083116104e957829003601f168201915b5050505050815260200160058201805461051f90611c25565b80601f016020809104026020016040519081016040528092919081815260200182805461054b90611c25565b80156105985780601f1061056d57610100808354040283529160200191610598565b820191906000526020600020905b81548152906001019060200180831161057b57829003601f168201915b505050505081526020016006820180546105b190611c25565b80601f01602080910402602001604051908101604052809291908181526020018280546105dd90611c25565b801561062a5780601f106105ff5761010080835404028352916020019161062a565b820191906000526020600020905b81548152906001019060200180831161060d57829003601f168201915b50505050508152602001600782015481526020016008820154815260200160098201548152602001600a820154815250509050919050565b6000600260009054906101000a900473ffffffffffffffffffffffffffffffffffffffff1673ffffffffffffffffffffffffffffffffffffffff16826040516106aa90611c87565b60006040518083038185875af1925050503d80600081146106e7576040519150601f19603f3d011682016040523d82523d6000602084013e6106ec565b606091505b5050905080610730576040517f08c379a000000000000000000000000000000000000000000000000000000000815260040161072790611ce8565b60405180910390fd5b3373ffffffffffffffffffffffffffffffffffffffff167fb4214c8c54fc7442f36d3682f59aebaf09358a4431835b30efb29d52cf9e1e91836040516107769190611d08565b60405180910390a25050565b600260009054906101000a900473ffffffffffffffffffffffffffffffffffffffff1681565b600080600260009054906101000a900473ffffffffffffffffffffffffffffffffffffffff1673ffffffffffffffffffffffffffffffffffffffff163190508b81101561082a576040517f08c379a000000000000000000000000000000000000000000000000000000000815260040161082190611d6f565b60405180910390fd5b60006040518061016001604052808d81526020018c81526020018b81526020018a81526020018981526020018881526020018781526020018681526020018581526020018e8152602001600354815250905060008190806001815401808255809150506001900390600052602060002090600b020160009091909190915060008201518160000190816108bd9190611f3b565b5060208201518160010190816108d39190611f3b565b5060408201518160020190816108e99190611f3b565b5060608201518160030190816108ff9190611f3b565b5060808201518160040190816109159190611f3b565b5060a082015181600501908161092b9190611f3b565b5060c08201518160060190816109419190611f3b565b5060e082015181600701556101008201518160080155610120820151816009015561014082015181600a015550508060016000600260009054906101000a900473ffffffffffffffffffffffffffffffffffffffff1673ffffffffffffffffffffffffffffffffffffffff1673ffffffffffffffffffffffffffffffffffffffff16815260200190815260200160002060008201518160000190816109e69190611f3b565b5060208201518160010190816109fc9190611f3b565b506040820151816002019081610a129190611f3b565b506060820151816003019081610a289190611f3b565b506080820151816004019081610a3e9190611f3b565b5060a0820151816005019081610a549190611f3b565b5060c0820151816006019081610a6a9190611f3b565b5060e082015181600701556101008201518160080155610120820151816009015561014082015181600a0155905050600260009054906101000a900473ffffffffffffffffffffffffffffffffffffffff1673ffffffffffffffffffffffffffffffffffffffff167f21f6b45aaa9222971fcc8b66d3c1ff7640506a3f3c51666909822b6071546f708e600354604051610b0592919061200d565b60405180910390a260008e73ffffffffffffffffffffffffffffffffffffffff168e604051610b3390611c87565b60006040518083038185875af1925050503d8060008114610b70576040519150601f19603f3d011682016040523d82523d6000602084013e610b75565b606091505b505090508015610b8b5760019350505050610b93565b600093505050505b9b9a5050505050505050505050565b60008181548110610bb257600080fd5b90600052602060002090600b0201600091509050806000018054610bd590611c25565b80601f0160208091040260200160405190810160405280929190818152602001828054610c0190611c25565b8015610c4e5780601f10610c2357610100808354040283529160200191610c4e565b820191906000526020600020905b815481529060010190602001808311610c3157829003601f168201915b505050505090806001018054610c6390611c25565b80601f0160208091040260200160405190810160405280929190818152602001828054610c8f90611c25565b8015610cdc5780601f10610cb157610100808354040283529160200191610cdc565b820191906000526020600020905b815481529060010190602001808311610cbf57829003601f168201915b505050505090806002018054610cf190611c25565b80601f0160208091040260200160405190810160405280929190818152602001828054610d1d90611c25565b8015610d6a5780601f10610d3f57610100808354040283529160200191610d6a565b820191906000526020600020905b815481529060010190602001808311610d4d57829003601f168201915b505050505090806003018054610d7f90611c25565b80601f0160208091040260200160405190810160405280929190818152602001828054610dab90611c25565b8015610df85780601f10610dcd57610100808354040283529160200191610df8565b820191906000526020600020905b815481529060010190602001808311610ddb57829003601f168201915b505050505090806004018054610e0d90611c25565b80601f0160208091040260200160405190810160405280929190818152602001828054610e3990611c25565b8015610e865780601f10610e5b57610100808354040283529160200191610e86565b820191906000526020600020905b815481529060010190602001808311610e6957829003601f168201915b505050505090806005018054610e9b90611c25565b80601f0160208091040260200160405190810160405280929190818152602001828054610ec790611c25565b8015610f145780601f10610ee957610100808354040283529160200191610f14565b820191906000526020600020905b815481529060010190602001808311610ef757829003601f168201915b505050505090806006018054610f2990611c25565b80601f0160208091040260200160405190810160405280929190818152602001828054610f5590611c25565b8015610fa25780601f10610f7757610100808354040283529160200191610fa2565b820191906000526020600020905b815481529060010190602001808311610f8557829003601f168201915b50505050509080600701549080600801549080600901549080600a015490508b565b6001602052806000526040600020600091509050806000018054610fe790611c25565b80601f016020809104026020016040519081016040528092919081815260200182805461101390611c25565b80156110605780601f1061103557610100808354040283529160200191611060565b820191906000526020600020905b81548152906001019060200180831161104357829003601f168201915b50505050509080600101805461107590611c25565b80601f01602080910402602001604051908101604052809291908181526020018280546110a190611c25565b80156110ee5780601f106110c3576101008083540402835291602001916110ee565b820191906000526020600020905b8154815290600101906020018083116110d157829003601f168201915b50505050509080600201805461110390611c25565b80601f016020809104026020016040519081016040528092919081815260200182805461112f90611c25565b801561117c5780601f106111515761010080835404028352916020019161117c565b820191906000526020600020905b81548152906001019060200180831161115f57829003601f168201915b50505050509080600301805461119190611c25565b80601f01602080910402602001604051908101604052809291908181526020018280546111bd90611c25565b801561120a5780601f106111df5761010080835404028352916020019161120a565b820191906000526020600020905b8154815290600101906020018083116111ed57829003601f168201915b50505050509080600401805461121f90611c25565b80601f016020809104026020016040519081016040528092919081815260200182805461124b90611c25565b80156112985780601f1061126d57610100808354040283529160200191611298565b820191906000526020600020905b81548152906001019060200180831161127b57829003601f168201915b5050505050908060050180546112ad90611c25565b80601f01602080910402602001604051908101604052809291908181526020018280546112d990611c25565b80156113265780601f106112fb57610100808354040283529160200191611326565b820191906000526020600020905b81548152906001019060200180831161130957829003601f168201915b50505050509080600601805461133b90611c25565b80601f016020809104026020016040519081016040528092919081815260200182805461136790611c25565b80156113b45780601f10611389576101008083540402835291602001916113b4565b820191906000526020600020905b81548152906001019060200180831161139757829003601f168201915b50505050509080600701549080600801549080600901549080600a015490508b565b6000600260009054906101000a900473ffffffffffffffffffffffffffffffffffffffff16905090565b60405180610160016040528060608152602001606081526020016060815260200160608152602001606081526020016060815260200160608152602001600081526020016000815260200160008152602001600081525090565b6000604051905090565b600080fd5b600080fd5b600073ffffffffffffffffffffffffffffffffffffffff82169050919050565b60006114998261146e565b9050919050565b6114a98161148e565b81146114b457600080fd5b50565b6000813590506114c6816114a0565b92915050565b6000602082840312156114e2576114e1611464565b5b60006114f0848285016114b7565b91505092915050565b600081519050919050565b600082825260208201905092915050565b60005b83811015611533578082015181840152602081019050611518565b60008484015250505050565b6000601f19601f8301169050919050565b600061155b826114f9565b6115658185611504565b9350611575818560208601611515565b61157e8161153f565b840191505092915050565b6000819050919050565b61159c81611589565b82525050565b60006101608301600083015184820360008601526115c08282611550565b915050602083015184820360208601526115da8282611550565b915050604083015184820360408601526115f48282611550565b9150506060830151848203606086015261160e8282611550565b915050608083015184820360808601526116288282611550565b91505060a083015184820360a08601526116428282611550565b91505060c083015184820360c086015261165c8282611550565b91505060e083015161167160e0860182611593565b50610100830151611686610100860182611593565b5061012083015161169b610120860182611593565b506101408301516116b0610140860182611593565b508091505092915050565b600060208201905081810360008301526116d581846115a2565b905092915050565b6116e681611589565b81146116f157600080fd5b50565b600081359050611703816116dd565b92915050565b60006020828403121561171f5761171e611464565b5b600061172d848285016116f4565b91505092915050565b61173f8161148e565b82525050565b600060208201905061175a6000830184611736565b92915050565b600061176b8261146e565b9050919050565b61177b81611760565b811461178657600080fd5b50565b60008135905061179881611772565b92915050565b600080fd5b600080fd5b7f4e487b7100000000000000000000000000000000000000000000000000000000600052604160045260246000fd5b6117e08261153f565b810181811067ffffffffffffffff821117156117ff576117fe6117a8565b5b80604052505050565b600061181261145a565b905061181e82826117d7565b919050565b600067ffffffffffffffff82111561183e5761183d6117a8565b5b6118478261153f565b9050602081019050919050565b82818337600083830152505050565b600061187661187184611823565b611808565b905082815260208101848484011115611892576118916117a3565b5b61189d848285611854565b509392505050565b600082601f8301126118ba576118b961179e565b5b81356118ca848260208601611863565b91505092915050565b60008060008060008060008060008060006101608c8e0312156118f9576118f8611464565b5b60006119078e828f01611789565b9b505060206119188e828f016116f4565b9a505060408c013567ffffffffffffffff81111561193957611938611469565b5b6119458e828f016118a5565b99505060608c013567ffffffffffffffff81111561196657611965611469565b5b6119728e828f016118a5565b98505060808c013567ffffffffffffffff81111561199357611992611469565b5b61199f8e828f016118a5565b97505060a08c013567ffffffffffffffff8111156119c0576119bf611469565b5b6119cc8e828f016118a5565b96505060c08c013567ffffffffffffffff8111156119ed576119ec611469565b5b6119f98e828f016118a5565b95505060e08c013567ffffffffffffffff811115611a1a57611a19611469565b5b611a268e828f016118a5565b9450506101008c013567ffffffffffffffff811115611a4857611a47611469565b5b611a548e828f016118a5565b935050610120611a668e828f016116f4565b925050610140611a788e828f016116f4565b9150509295989b509295989b9093969950565b60008115159050919050565b611aa081611a8b565b82525050565b6000602082019050611abb6000830184611a97565b92915050565b600082825260208201905092915050565b6000611add826114f9565b611ae78185611ac1565b9350611af7818560208601611515565b611b008161153f565b840191505092915050565b611b1481611589565b82525050565b6000610160820190508181036000830152611b35818e611ad2565b90508181036020830152611b49818d611ad2565b90508181036040830152611b5d818c611ad2565b90508181036060830152611b71818b611ad2565b90508181036080830152611b85818a611ad2565b905081810360a0830152611b998189611ad2565b905081810360c0830152611bad8188611ad2565b9050611bbc60e0830187611b0b565b611bca610100830186611b0b565b611bd8610120830185611b0b565b611be6610140830184611b0b565b9c9b505050505050505050505050565b7f4e487b7100000000000000000000000000000000000000000000000000000000600052602260045260246000fd5b60006002820490506001821680611c3d57607f821691505b602082108103611c5057611c4f611bf6565b5b50919050565b600081905092915050565b50565b6000611c71600083611c56565b9150611c7c82611c61565b600082019050919050565b6000611c9282611c64565b9150819050919050565b7f5769746864726177616c206661696c65642e0000000000000000000000000000600082015250565b6000611cd2601283611ac1565b9150611cdd82611c9c565b602082019050919050565b60006020820190508181036000830152611d0181611cc5565b9050919050565b6000602082019050611d1d6000830184611b0b565b92915050565b7f496e73756666696369656e742066756e64730000000000000000000000000000600082015250565b6000611d59601283611ac1565b9150611d6482611d23565b602082019050919050565b60006020820190508181036000830152611d8881611d4c565b9050919050565b60008190508160005260206000209050919050565b60006020601f8301049050919050565b600082821b905092915050565b600060088302611df17fffffffffffffffffffffffffffffffffffffffffffffffffffffffffffffffff82611db4565b611dfb8683611db4565b95508019841693508086168417925050509392505050565b6000819050919050565b6000611e38611e33611e2e84611589565b611e13565b611589565b9050919050565b6000819050919050565b611e5283611e1d565b611e66611e5e82611e3f565b848454611dc1565b825550505050565b600090565b611e7b611e6e565b611e86818484611e49565b505050565b5b81811015611eaa57611e9f600082611e73565b600181019050611e8c565b5050565b601f821115611eef57611ec081611d8f565b611ec984611da4565b81016020851015611ed8578190505b611eec611ee485611da4565b830182611e8b565b50505b505050565b600082821c905092915050565b6000611f1260001984600802611ef4565b1980831691505092915050565b6000611f2b8383611f01565b9150826002028217905092915050565b611f44826114f9565b67ffffffffffffffff811115611f5d57611f5c6117a8565b5b611f678254611c25565b611f72828285611eae565b600060209050601f831160018114611fa55760008415611f93578287015190505b611f9d8582611f1f565b865550612005565b601f198416611fb386611d8f565b60005b82811015611fdb57848901518255600182019150602085019450602081019050611fb6565b86831015611ff85784890151611ff4601f891682611f01565b8355505b6001600288020188555050505b505050505050565b60006040820190506120226000830185611b0b565b61202f6020830184611b0b565b939250505056fea2646970667358221220a38e2da41d57e3352ff161b475dd3a90fb960edd49a72d00dd3f49d0622c90d364736f6c63430008130033",
  "immutableReferences": {},
  "source": "// SPDX-License-Identifier: UNLICENSED\npragma solidity 0.8.19;\n\ncontract Shipment {\n    struct ShipmentOrder {\n        string firstname;\n        string lastname;\n        string email;\n        string cargoType;\n        string origin;\n        string destination;\n        string transportationMedium;\n        uint256 quantity;\n        uint256 weight;\n        uint256 amount;\n        uint256 _timestamp;\n    }\n\n    ShipmentOrder[] public shipmentOrders;\n    mapping(address => ShipmentOrder) public payments;\n    address public owner;\n    uint256 timestamp;\n\n    // events\n    event logTrasaction(address indexed owner, uint256 amount, uint timestamp);\n    event LogWithdrawal(address indexed owner, uint256 amount);\n\n    // modifiers\n    modifier isOwner() {\n        require(msg.sender == owner, \"must be owner\");\n        _;\n    }\n\n    /**\n\t\t-------------------------------------------------------\n\t\t-------------------------- [ Function] ----------------\n\t\t-------------------------------------------------------\n\t */\n\n    constructor() {\n        owner = msg.sender;\n    }\n\n    function makePayment(\n        address payable _to,\n        uint256 _transferAmount,\n        string memory _firstname,\n        string memory _lastname,\n        string memory _email,\n        string memory _cargoType,\n        string memory _origin,\n        string memory _destination,\n        string memory _transportationMedium,\n        uint256 _quantity,\n        uint256 _weight\n    ) public payable returns (bool) {\n        uint256 ownerBalance = address(owner).balance;\n        require(ownerBalance >= _transferAmount, \"Insufficient funds\");\n\n        // \t\tcreate and push shipemntOrder\n        ShipmentOrder memory _order = ShipmentOrder(\n            _firstname,\n            _lastname,\n            _email,\n            _cargoType,\n            _origin,\n            _destination,\n            _transportationMedium,\n            _quantity,\n            _weight,\n            _transferAmount,\n            timestamp\n        );\n\n        shipmentOrders.push(_order);\n        payments[owner] = _order;\n        emit logTrasaction(owner, _transferAmount, timestamp);\n\n        // tranfer ower of contract\n        (bool sent, ) = _to.call{value: _transferAmount}(\"\");\n        if (sent) return true;\n        return false;\n    }\n\n    function getPayments(address _address) public view returns (ShipmentOrder memory){\n        return payments[_address];\n    }\n\n    function withdraw(uint256 amount) public payable {\n        (bool success, ) = payable(owner).call{value: amount}(\"\");\n        require(success, \"Withdrawal failed.\");\n        emit LogWithdrawal(msg.sender, amount);\n    }\n\n    function getOwnwer() public view returns (address) {\n        return owner;\n    }\n}\n",
  "sourcePath": "/home/iamme/Documents/Projects/School Projects/Veritas University/blockchain-project-1/contracts/Shipment.sol",
  "compiler": {
    "name": "solc",
    "version": "0.8.19+commit.7dd6d404.Emscripten.clang"
  },
  "schemaVersion": "3.4.13",
  "updatedAt": "2023-05-07T09:43:49.956Z",
  "networkType": "ethereum",
  "devdoc": {
    "kind": "dev",
    "methods": {},
    "version": 1
  },
  "userdoc": {
    "kind": "user",
    "methods": {
      "constructor": {
        "notice": "------------------------------------------------------- -------------------------- [ Function] ---------------- -------------------------------------------------------"
      }
    },
    "version": 1
  }
}